:020000040800F2
:1000000058080024490300085D2D00080F2D000842
:10001000592D000805090008893E0008000000006D
:10002000000000000000000000000000CF2F0008CA
:1000300025090008000000005F2D0008C9300008F5
:1000400063030008630300086303000863030008F8
:1000500063030008630300086303000863030008E8
:1000600063030008630300086303000863030008D8
:1000700063030008630300086303000863030008C8
:1000800063030008630300086303000863030008B8
:1000900063030008630300086303000863030008A8
:1000A0006303000863030008630300086303000898
:1000B0006303000863030008630300086303000888
:1000C0006303000863030008630300086303000878
:1000D00063030008393E0008630300086303000857
:1000E00063030008630300080000000063030008C6
:1000F0006303000863030008630300086303000848
:100100006303000863030008630300086303000837
:100110006303000863030008630300086303000827
:100120006303000863030008630300086303000817
:100130006303000863030008630300086303000807
:1001400000000000000000000000000000000000AF
:1001500063030008630300086303000863030008E7
:1001600063030008630300086303000863030008D7
:100170006303000863030008630300080000000035
:1001800063030008630300086303000863030008B7
:1001900063030008630300086303000863030008A7
:1001A0006303000863030008630300086303000897
:1001B0006303000863030008630300086303000887
:1001C0006303000863030008630300086303000877
:1001D0006303000863030008630300086303000867
:1001E0006303000863030008630300086303000857
:1001F0006303000863030008630300086303000847
:100200006303000863030008630300086303000836
:100210006303000863030008630300086303000826
:100220006303000863030008630300080000000084
:100230006303000863030008000000006303000874
:1002400063030008630300086303000863030008F6
:1002500063030008630300086303000863030008E6
:1002600063030008630300086303000863030008D6
:100270006303000863030008630300080000000034
:100280006303000800000000630300080000000092
:10029000000000006303000800F002F800F044F8DA
:1002A0000AA090E8000C82448344AAF10107DA45D1
:1002B00001D100F039F8AFF2090EBAE80F0013F0DF
:1002C000010F18BFFB1A43F001031847F843000061
:1002D00018440000103A24BF78C878C1FAD85207F1
:1002E00024BF30C830C144BF04680C6070470000B0
:1002F0000023002400250026103A28BF78C1FBD82F
:10030000520728BF30C148BF0B607047642900F016
:10031000E780782900F02081002070471FB504F0A5
:1003200059F91FBD10B510BD00F0BAFA1146FFF71C
:10033000F5FF03F0C7FE00F0D8FA03B4FFF7F2FFB1
:1003400003BC03F0C6FD0000094880470948004788
:10035000FEE7FEE7FEE7FEE7FEE7FEE7FEE7FEE775
:10036000FEE7FEE704480549054A064B70470000D2
:10037000D1300008990200085802002458080024CF
:10038000580400245804002453EA020C00F0698049
:100390002DE9F04B4FF00006002B1FBFB3FA83F599
:1003A00003FA05F424FA05F65E4012BF1643B2FACA
:1003B00082F502FA05F4C5F120051EBF22FA05FCFC
:1003C00044EA0C04203556EA044C4FEA144418BFA2
:1003D000641C4FF000084FF00009904271EB030CD1
:1003E00039D3002919BFB1FA81F701FA07F6B0FA3B
:1003F00080F700FA07F6C7F120071EBF20FA07FCB6
:1004000046EA0C062037B6FBF4FCA7EB0507103FC5
:1004100007F01F0BCBF120060CFA0BFB2CFA06F6AB
:1004200044BFB3460026202FA4BF5E464FF0000B0A
:100430005BEA060C08BF4FF0010B19EB0B09ABFB95
:10044000027C48EB0608C01B06FB02CC0BFB03CC6E
:1004500071EB0C01C1E70B46024641464846BDE838
:10046000F08B13B54FF000004FF00001AFF30080A8
:10047000BDE81C40704700000FB4044910B503AA42
:10048000029800F0BDF910BC5DF814FB10000024C8
:1004900070B5044685690068C10601D5302600E0C4
:1004A0002026C00707D070BDD4E90121304690470F
:1004B000206A401C20626D1EF6D570BD70B50446E2
:1004C00085690078C00707D170BDD4E901212020DB
:1004D0009047206A401C20626D1EF6D570BD00005A
:1004E0002DE9F0410646002410687529314616A50D
:1004F00010D0AFF30080002802DA404213A507E0D5
:1005000031688A0701D512A502E0490704D511A573
:10051000012401E0AFF3008000210A2206F1240744
:1005200009E0B0FBF2FCB0FBF2F302FB1C00303040
:1005300078541846491C0028F3D123462A463046F1
:10054000BDE8F04100F002B9000000002D000000FD
:100550002B0000002000000070B504460D46214627
:100560001068AFF300802188090502D50F4A7A444C
:1005700002E00E4A7A440E32002104F1240305E021
:1005800000F00F060009965D5E54491C0028F7D163
:1005900020780023000704D5702D02D009B1022372
:1005A00011322046BDE8704000F0D0B8164100007E
:1005B0002DE9F05F894604464FF0000ADFF824B1C8
:1005C000FB44C0F820A02046E168884700287DD081
:1005D000252806D0D4E901219047206A401C2062DA
:1005E000F1E700255F462046E16888472028064657
:1005F00007DB312E05D2B81910F8200C08B10543DD
:10060000F1E7A80701D525F00405C4F81CA00027D0
:10061000C4F818A02A2E09D0304603F053FC38B392
:1006200004EB8708303EC8F8186019E059F8041B3D
:10063000204604EB87029161E1688847012F064656
:1006400018D1E069002820DA25F020051DE0D8F84F
:10065000180000EB800006EB40003038C8F81800A6
:100660002046E1688847064603F02CFC0028EED1BE
:10067000012F0AD02E2E08D12046E16888477F1C22
:100680000646022F45F02005C4DBA069002803DAE6
:10069000404245F00105A061E80701D025F01005B2
:1006A000A6B1A6F14100192802D8203645F400650C
:1006B0004A463146204625604D46FFF727FE60B189
:1006C000012807D0ED1D25F0070000E007E000F14C
:1006D000080978E705F1040975E730467AE7206AEA
:1006E000BDE8F09FEC40000002F0FF0343EA032264
:1006F00042EA024200F098B84FF0000200B51346FB
:1007000094469646203922BFA0E80C50A0E80C5031
:10071000B1F12001BFF4F7AF090728BFA0E80C50E2
:1007200048BF0CC05DF804EB890028BF40F8042BDB
:1007300008BF704748BF20F8022B11F0804F18BF48
:1007400000F8012B70477047704770472DE9F0475C
:100750000D4699469246044600F124080168880631
:1007600004D5E06921F01001216000E00120A842D9
:1007700001DD471B00E00027A1697A1902EB09009F
:10078000081AA0612078C00602D42046FFF780FE38
:10079000002608E0D4E901211AF806009047206AF3
:1007A000401C761C20624E45F4DB2078C0060AD53A
:1007B0002046FFF76DFE06E0D4E901213020904786
:1007C000206A401C2062381EA7F10107F4DC07E014
:1007D000D4E9012118F805009047206A401C2062E6
:1007E000281EA5F10105F3DC2046FFF767FE2078FF
:1007F000000602D50220BDE8F0870120FBE70000DB
:10080000074B70B50D467B4400F033F8044628468C
:1008100000F042F810B14FF0FF3070BD204670BDBF
:100820009F3800004FF000020429C0F0128010F041
:10083000030C3FF463AFCCF1040CBCF1020F18BF02
:1008400000F8012BA8BF20F8022BA1EB0C01FFF749
:1008500055BF5FEAC17C24BF00F8012B00F8012BD3
:1008600048BF00F8012B704701694A1C02610878F3
:10087000704700B58FB0CDE90131002105910549E0
:100880007944CDE9031011466846FFF791FE0FB099
:1008900000BD0000E5FFFFFF007B00F08000704717
:1008A000754600F02BF8AE4605006946534620F029
:1008B0000700854618B020B5FFF754FDBDE820407D
:1008C0004FF000064FF000074FF000084FF0000B0C
:1008D00021F00701AC46ACE8C009ACE8C009ACE8BF
:1008E000C009ACE8C0098D46704710B50446AFF3A7
:1008F00000802046BDE81040FFF71FBD004870474C
:10090000F801002400BFFEE710B502F077FA02F00C
:1009100027FA0348006840F004000149086010BD50
:100920009CEF00E07047000070B504461D460023B0
:10093000B5F5804F13D154F822300C480340D1E96B
:10094000000640EA06108E6840EA06208E8940EADA
:1009500006408E693043034344F8223003E06FF0D1
:10096000704044F82200002070BD00000000F0CF6D
:1009700010B502460023086852F820301B48034097
:10098000D1E901042043CC6820430C6920434C6921
:1009900020438C692043CC6920430C6A20434C6A75
:1009A00020438C6A2043CC6A20430C6B20438C6B21
:1009B00020434C6B204303438868082801D143F04F
:1009C0004003086842F82030086BB0F5801F05D15D
:1009D000086818B110680C6B20431060086818B1E3
:1009E00010684C6B20431060002010BD8004C0FFD5
:1009F00030B5034614460022601C53F8202002F054
:100A00004042D1E9000540EA05108D6840EA052022
:100A10008D8940EA0545088A401E45EA0055087D53
:100A2000801E45EA00608D6928430243601C43F83C
:100A30002020186800F4801038B1586820F4700243
:100A4000088A401E42EA00525A60002030BD000071
:100A500010B504460CB9012010BD94F835000228E9
:100A600003D0802060650120F6E734492068884281
:100A700005D333492068884201D8012000E00020D6
:100A8000C0B1042084F835002C49206888420AD37C
:100A90002B492068884206D82068006820F00100B1
:100AA0002168086048E02068006820F001002168A3
:100AB000086041E02068006820F00E0021680860AE
:100AC0001E49206888420AD31D492068884206D8FA
:100AD0002068006820F001002168086005E02068B7
:100AE000006820F0010021680860206E006820F492
:100AF0008070216E086094F85C10012088401149D4
:100B00000860D4E919104860E06E40B1E06E0068FA
:100B100020F48070E16E0860D4E91C10486000BFCA
:100B2000002084F8340000BF012084F83500206DD7
:100B300010B12046216D884700208DE7100002404B
:100B4000B80402400454025870B5044600F046F957
:100B500006462546681C10B104480078054400BFCD
:100B600000F03CF9801BA842FAD370BD200000249D
:100B70000348006840F00100014908607047000028
:100B800020040058F8B502460B4600210026002438
:100B90000020824D00BFFCE0012707FA01F61F6824
:100BA00007EA0604B4427CD15F68022F02D05F6876
:100BB000122F1AD14FEAD10C02F1200757F82C005E
:100BC0004F074FEAD76C0F2707FA0CF7B8434FEAE5
:100BD000417C4FEADC6C1F6907FA0CF738434FEA97
:100BE000D10C02F1200747F82C0010684FEA410CA5
:100BF000032707FA0CF7B8431F7907F003074FEAFA
:100C0000410C07FA0CF7384310605F68012F08D0D9
:100C10005F68022F05D05F68112F02D05F68122F26
:100C200017D190684FEA410C032707FA0CF7B84335
:100C30004FEA410CDF6807FA0CF7384390605068C0
:100C400001278F40B8431F79C7F300178F403843FF
:100C50005060D0684FEA410C032707FA0CF7B843FD
:100C60004FEA410C9F6807FA0CF73843D0605F6881
:100C700007F08057B7F1805F95D100BF484F3F68BC
:100C800047F00207DFF818C1CCF8007067463F68EC
:100C900007F00207009700BF00BF424F4FEA910CD8
:100CA00000E075E057F82C008F074FEA177C0F27FC
:100CB00007FA0CF7B8433C4FBA4201D100272DE0A8
:100CC0003A4FBA4201D1012728E0394FBA4201D147
:100CD000022723E0374FBA4201D103271EE0364FE7
:100CE000BA4201D1042719E0344FBA4201D1052795
:100CF00014E0334FBA4201D106270FE0314FBA4218
:100D000001D107270AE0304FBA4201D1082705E098
:100D10002E4FBA4201D1092700E00A274FEA817C11
:100D20004FEA1C7C07FA0CF738431E4F4FEA910C30
:100D300047F82C002868A0435F6807F48037B7F5B0
:100D4000803F00D1204328606868A0435F6807F4B3
:100D50000037B7F5003F00D1204368604FF0B0473F
:100D60003868A0435F6807F48017B7F5801F00D18B
:100D700020434FF0B04738607868A0435F6807F4BD
:100D80000017B7F5001F00D120434FF0B04778603F
:100D9000491C1029FFF400AFF8BD00008000005886
:100DA000F444025808040058000002580004025895
:100DB00000080258000C0258001002580014025893
:100DC00000180258001C0258002002580024025843
:100DD0000AB1018300E041837047000001480068C8
:100DE0007047000018000024034800680349097890
:100DF00008440149086070471800002420000024BE
:100E000010B5032000F03CF90F2000F007F808B1FE
:100E1000012010BD00F028F80020FAE770B5044664
:100E20000E4800784FF47A71B1FBF0F00C49096874
:100E3000B1FBF0F5284601F029FD08B1012070BD95
:100E4000102C07D200222146501E00F0DBF8054886
:100E5000046001E00120F2E70020F0E72000002418
:100E6000040000241C0000247047000070B50446F4
:100E70000E4615460CB9012070BD94F8450028B9FE
:100E8000002084F84400204600F032F804F1080104
:100E90002068FFF76DFD3146A2682068FFF7A8FDC6
:100EA0002946E36AD4E90102FFF73EFDA168206804
:100EB00050F8210040F00100A268216841F82200AA
:100EC000606918B900200849086002E0012006495D
:100ED00008600648006840F00040044908600120AE
:100EE00084F845000020C7E7240000240040005299
:100EF00010B586B0044600BF2F48006840F00200DD
:100F00002D4908600846006800F00200009000BF0C
:100F100000BF00BF0846006840F0040008600846B3
:100F2000006800F00400009000BF00BF00BF08464A
:100F3000006840F0080008600846006800F00800FB
:100F4000009000BF00BF00BF0846006840F01000DE
:100F500008600846006800F01000009000BF00BF65
:100F60008020019002200290002003900320049032
:100F70000C20059001A91148FFF704FEC020019044
:100F80000920059001A90E48FFF7FCFD4FF63B70C4
:100F900001900C20059001A90A48FFF7F3FD4FF6D8
:100FA000FC70019001A90848FFF7ECFD07A0FFF7CE
:100FB00063FA06B010BD0000E04402580004025875
:100FC00000080258000C025800100258666D632099
:100FD0006770696F20696E697420646F6E652E2E6C
:100FE0002E0D0A0001460846002809DB00F01F0309
:100FF00001229A4043099B0003F1E023C3F800213A
:1010000000BF70472DE9F05F80460D46164602F09E
:101010003DFF074639462A46334601F00700C0F136
:10102000070ABAF1040F02D94FF0040A01E0C0F137
:10103000070AD14600F1040ABAF1070F02D24FF0B5
:10104000000A01E0A0F1030AD4464FF0010A0AFAAF
:1010500009FAAAF1010A0AEA020A0AFA0CFA4FF09E
:10106000010B0BFA0CFBABF1010B0BEA030B4AEA89
:101070000B042146404602F011FFBDE8F09F00003E
:1010800000BF00F00702064B19684FF6FF03194036
:10109000044B0B4343EA0221014B196000BF704728
:1010A0000CED00E00000FA0510B500F0CBFB09499B
:1010B000096801F470614FF4807292FAA2F2B2FAF8
:1010C00082F2D140044A515CC84004490860084695
:1010D000006810BD184402580E46000804000024A1
:1010E00010B500F067FB0749096801F07001102294
:1010F00092FAA2F2B2FA82F2D140034A515CC8409D
:1011000010BD0000204402580E46000870B501468C
:1011100000220120002300249FED811AB0EE410A35
:101120009FED7F1AF0EE410A7E4D2D6805F0030217
:101130007C4D2D68C5F305307A4D2D1D2D6805F0C9
:101140001003784D14352D68C5F3CC0515FB03F558
:1011500001EE105AB8EE411AB0EE410A22B1012A4E
:101160004DD0022A7DD169E06E4D283D2D68C5F332
:1011700040152DB36B4D283D2D68C5F3C1066A4D52
:1011800025FA06F4B4FBF0F501EE105AF8EE411A18
:101190009FED661A80EE012A624D10352D68C5F369
:1011A000080501EE105AB8EE411A32EE011AB7EEF8
:1011B000002A31EE021A21EE811AF0EE410A1DE0FA
:1011C000594DB5FBF0F501EE105AF8EE411A9FEDBE
:1011D000571A80EE012A534D10352D68C5F30805C6
:1011E00001EE105AB8EE411A32EE011AB7EE002A9B
:1011F00031EE021A21EE811AF0EE410A5EE04C4D0A
:10120000B5FBF0F501EE105AB8EE412A9FED471AF2
:10121000C0EE011A434D10352D68C5F3080501EEE7
:10122000105AB8EE411A31EE811AF7EE001A31EE7B
:10123000211A22EE011AF0EE410A3FE03D4DB5FBC6
:10124000F0F501EE105AF8EE411A9FED381A80EED3
:10125000012A344D10352D68C5F3080501EE105AEA
:1012600000E00CE0B8EE411A32EE011AB7EE002AA7
:1012700031EE021A21EE811AF0EE410A1EE02C4DE9
:10128000B5FBF0F501EE105AB8EE412A9FED271A92
:10129000C0EE011A234D10352D68C5F3080501EE87
:1012A000105AB8EE411A31EE811AF7EE001A31EEFB
:1012B000211A22EE011AF0EE410A00BF00BF194DBB
:1012C00010352D68C5F346256D1C01EE105AB8EE99
:1012D000411AC0EE811ABCEEE11A81ED001A114DDF
:1012E00010352D68C5F306456D1C01EE105AB8EE99
:1012F000411AC0EE811ABCEEE11A81ED011A094DC6
:1013000010352D68C5F306656D1C01EE105AB8EE58
:10131000411AC0EE811ABCEEE11A81ED021A70BDCD
:1013200000000000284402580090D003000000464E
:1013300000093D0040787D0170B501460022012082
:10134000002300249FED811AB0EE410A9FED7F1A21
:10135000F0EE410A7E4D2D6805F003027C4D2D68AC
:10136000C5F305507A4D2D1D2D6805F48073784D19
:101370001C352D68C5F3CC0515FB03F501EE105A9D
:10138000B8EE411AB0EE410A22B1012A4DD0022A2C
:101390007DD169E06E4D283D2D68C5F340152DB314
:1013A0006B4D283D2D68C5F3C1066A4D25FA06F43C
:1013B000B4FBF0F501EE105AF8EE411A9FED661AF3
:1013C00080EE012A624D18352D68C5F3080501EE3F
:1013D000105AB8EE411A32EE011AB7EE002A31EE79
:1013E000021A21EE811AF0EE410A1DE0594DB5FBBB
:1013F000F0F501EE105AF8EE411A9FED571A80EE03
:10140000012A534D18352D68C5F3080501EE105A11
:10141000B8EE411A32EE011AB7EE002A31EE021A86
:1014200021EE811AF0EE410A5EE04C4DB5FBF0F57D
:1014300001EE105AB8EE412A9FED471AC0EE011A8C
:10144000434D18352D68C5F3080501EE105AB8EE66
:10145000411A31EE811AF7EE001A31EE211A22EE0E
:10146000011AF0EE410A3FE03D4DB5FBF0F501EE0B
:10147000105AF8EE411A9FED381A80EE012A344DC9
:1014800018352D68C5F3080501EE105A00E00CE090
:10149000B8EE411A32EE011AB7EE002A31EE021A06
:1014A00021EE811AF0EE410A1EE02C4DB5FBF0F55D
:1014B00001EE105AB8EE412A9FED271AC0EE011A2C
:1014C000234D18352D68C5F3080501EE105AB8EE06
:1014D000411A31EE811AF7EE001A31EE211A22EE8E
:1014E000011AF0EE410A00BF00BF194D18352D68F2
:1014F000C5F346256D1C01EE105AB8EE411AC0EE38
:10150000811ABCEEE11A81ED001A114D18352D68D3
:10151000C5F306456D1C01EE105AB8EE411AC0EE37
:10152000811ABCEEE11A81ED011A094D18352D68BA
:10153000C5F306656D1C01EE105AB8EE411AC0EEF7
:10154000811ABCEEE11A81ED021A70BD00000000A4
:10155000284402580090D0030000004600093D00D6
:1015600040787D0170B504460D4600268D48006820
:1015700000F00700A8420ED28A48006820F0070059
:101580002843884908600846006800F00700A84220
:1015900001D0012070BD207800F00200022807D1A0
:1015A0008148006820F00F00E16808437E49086028
:1015B000207800F00100002851D07B48006820F41A
:1015C0007060A1680843784908606068022807D104
:1015D000754818380068C0F34040F8B90120D9E7D1
:1015E0006068032807D1704818380068C0F340606D
:1015F000A0B90120CEE76068012807D16A481838F1
:101600000068C0F3002048B90120C3E766481838D5
:101610000068C0F3800008B90120BBE762480838C1
:10162000006820F00700616808435F4908390860D6
:10163000FFF7D4FB06466068022811D108E0FFF7E7
:10164000CDFB801B41F28831884201D90320A1E7FC
:1016500055480838006800F038001028EFD13AE00B
:101660006068032811D108E0FFF7B8FB801B41F246
:101670008831884201D903208CE74B48083800683C
:1016800000F038001828EFD125E06068012811D15A
:1016900008E0FFF7A3FB801B41F28831884201D9A3
:1016A000032077E740480838006800F03800082831
:1016B000EFD110E008E0FFF791FB801B41F2883189
:1016C000884201D9032065E737480838006800F0F0
:1016D00038000028EFD13348006800F00700A84226
:1016E0000ED93048006820F0070028432D490860D3
:1016F0000846006800F00700A84201D0012049E731
:10170000207800F00400042807D12748006820F062
:1017100070002169084324490860207800F008001F
:10172000082809D12048001D006820F07000616978
:1017300008431D49091D0860207800F0100010289A
:1017400009D11948001D006820F4E060A169084330
:101750001549091D0860207800F02000202809D1D3
:1017600011480830006820F07000E16908430E4914
:101770000831086000F066F80B49096801F47061EF
:101780004FF4807292FAA2F2B2FA82F2D140074A82
:10179000515CC840064908600F20FFF73FFB00205E
:1017A000F8E6000000200052184402580E460008D7
:1017B0000400002410B5FFF777FC0949096801F01F
:1017C0000F01012292FAA2F2B2FA82F2D140054A46
:1017D000515CC840044908600846006810BD00001C
:1017E000184402580E4600080800002410B5FFF700
:1017F000E1FF0749096801F07001102292FAA2F294
:10180000B2FA82F2D140034A515CC84010BD0000D8
:101810001C4402580E46000810B5FFF7CBFF0749DD
:10182000096801F4E0614FF4807292FAA2F2B2FA10
:1018300082F2D140024A515CC84010BD1C4402589B
:101840000E46000870B5012500EE905A00220121D5
:1018500000230024DFED861AB0EE610ADFED841A62
:10186000B0EE611A0020834D2D6805F0380535B1C2
:10187000082D15D0102D15D0182D7CD114E07D4DDC
:10188000103D2D68C5F3401545B17A4D103D2D68CA
:10189000C5F3C106784D25FA06F000E07648E5E08C
:1018A0007648E3E07648E1E0724D18352D6805F0A2
:1018B0000302704D18352D68C5F305116D4D1C35AB
:1018C0002D6805F001036B4D24352D68C5F3CC055B
:1018D00015FB03F501EE905AF8EE611AB0EE610ABD
:1018E00022B1012A4FD0022A7DD16BE0614D103D1B
:1018F0002D68C5F340152DB35E4D103D2D68C5F321
:10190000C1065D4D25FA06F4B4FBF1F501EE905ADF
:10191000B8EE612ADFED5B1AC0EE212A554D203565
:101920002D68C5F3080501EE905AF8EE611A72EEC3
:10193000A11AF7EE002A71EEA21A62EE211AB0EE99
:10194000611A1FE04C4DB5FBF1F501EE905AB8EE6F
:10195000612ADFED4C1AC0EE212A464D20352D6854
:10196000C5F3080501EE905AF8EE611A72EEA11A5D
:10197000F7EE002A00E077E071EEA21A62EE211A7B
:10198000B0EE611A5EE03D4DB5FBF1F501EE905A07
:10199000B8EE612ADFED3B1AC0EE212A354D203525
:1019A0002D68C5F3080501EE905AF8EE611A72EE43
:1019B000A11AF7EE002A71EEA21A62EE211AB0EE19
:1019C000611A3FE02E4DB5FBF1F501EE905AB8EEED
:1019D000612ADFED2C1AC0EE212A264D20352D6814
:1019E000C5F3080500E00EE001EE905AF8EE611A2A
:1019F00072EEA11AF7EE002A71EEA21A62EE211A17
:101A0000B0EE611A1EE01D4DB5FBF1F501EE905AE6
:101A1000F8EE612ADFED1B1A80EE212A154D2035E4
:101A20002D68C5F3080501EE905AF8EE611A72EEC2
:101A3000211AB7EE002A71EE821A62EEA11AB0EEF8
:101A4000611A00BF00BF0B4D20352D68C5F3462538
:101A50006D1C00EE905AF8EE601A81EE212AFCEE21
:101A6000C21A11EE900A01E0044800BF00BF70BD29
:101A700000000000104402580090D00300093D000F
:101A800040787D010000004670B5044600252078AE
:101A900000F00100002872D0F948006800F038001A
:101AA00010280CD0F648006800F03800182812D131
:101AB000F3481830006800F0030002280BD1F0480A
:101AC00010380068C0F3404000286DD060680028DE
:101AD0006AD1012070BD00BF6068B0F5803F08D1B9
:101AE000E7481038006840F48030E5491039086054
:101AF0002EE0606868B9E2481038006820F4803051
:101B0000DF49103908600846006820F4802008602A
:101B10001EE06068B0F5A02F0DD1D94810380068DC
:101B200040F48020D649103908600846006840F427
:101B3000803008600CE0D2481038006820F4803013
:101B4000CF49103908600846006820F480200860FA
:101B500000BF6068A0B1FFF741F9054608E0FFF754
:101B60003DF9401B41F28831884201D90320B1E799
:101B7000C34810380068C0F340400028EFD013E09D
:101B8000FFF72CF9054608E0FFF728F9401B41F262
:101B90008831884201D903209CE7B9481038006891
:101BA000C0F340400028EFD1207800F00200022866
:101BB00047D1B348006800F0380058B1B048006819
:101BC00000F0380018283ED1AD481830006800F009
:101BD0000300B8BBAA4810380068C0F3800018B1F1
:101BE000E06808B9012075E7A5481038006820F0C2
:101BF0001900E1680843A24910390860FFF7EEF8C0
:101C0000054606E0FFF7EAF8401B022801D9032049
:101C100060E79B4810380068C0F380000028F1D0CE
:101C200097480C38006820F47C304FF47C3292FAEC
:101C3000A2F2B2FA82F221699140084390490C392C
:101C400008604AE0FFE7E06868B38D481038006834
:101C500020F01900E1680843894910390860FFF74E
:101C6000BDF8054606E0FFF7B9F8401B022801D988
:101C700003202FE7824810380068C0F38000002856
:101C8000F1D07F480C38006820F47C304FF47C326F
:101C900092FAA2F2B2FA82F221699140084378499D
:101CA0000C39086019E076481038006820F001000F
:101CB000734910390860FFF791F8054606E0FFF711
:101CC0008DF8401B022801D9032003E76C48103827
:101CD0000068C0F380000028F1D1207800F01000E7
:101CE000102877D16648006800F0380008280CD02A
:101CF0006348006800F03800182823D16048183085
:101D0000006800F0030001281CD15D48103800680D
:101D1000C0F3002020B1E069802801D00120D9E67D
:101D200057480C38006820F0F8404FF0F84292FA1B
:101D3000A2F2B2FA82F2216A9140084350490C396A
:101D4000086047E0E06958B34D481038006840F03B
:101D500080004B4910390860FFF740F8054606E05F
:101D6000FFF73CF8401B022801D90320B2E64448A3
:101D700010380068C0F300200028F1D040480C382B
:101D8000006820F0F8404FF0F84292FAA2F2B2FA5E
:101D900082F2216A9140084339490C39086019E000
:101DA00037481038006820F0800035491039086045
:101DB000FFF714F8054606E0FFF710F8401B02286D
:101DC00001D9032086E62E4810380068C0F30020B1
:101DD0000028F1D1207800F00800082836D1606989
:101DE000D0B127486430006840F0010024496431D4
:101DF0000860FEF7F3FF054606E0FEF7EFFF401B25
:101E0000022801D9032065E61D4864300068C0F34C
:101E100040000028F1D019E019486430006820F033
:101E20000100174964310860FEF7D8FF054606E057
:101E3000FEF7D4FF401B022801D903204AE61048D0
:101E400064300068C0F340000028F1D1207800F031
:101E50002000202834D1A069D8B109481038006882
:101E600040F48050064910390860FEF7B7FF054678
:101E700008E0FEF7B3FF401B022803D9032029E640
:101E800010440258AF480068C0F340300028F0D03A
:101E900016E0AC48006820F48050AA490860FEF7BC
:101EA0009DFF054606E0FEF799FF401B022801D979
:101EB00003200FE6A3480068C0F340300028F2D1A9
:101EC000207800F0040004287DD19F48006840F489
:101ED00080709D490860FEF781FF054606E0FEF729
:101EE0007DFF401B642801D90320F3E59648006874
:101EF00000F480700028F2D000BFA068012808D14B
:101F000090487030006840F001008E4970310860E0
:101F10002DE0A06868B98B487030006820F001009F
:101F20008849703108600846006820F004000860A5
:101F30001DE0A06805280DD182487030006840F08F
:101F400004008049703108600846006840F00100D4
:101F500008600CE07B487030006820F0010079498F
:101F6000703108600846006820F00400086000BF77
:101F7000A068A0B1FEF732FF054608E0FEF72EFF8D
:101F8000401B41F28831884201D90320A2E56D4807
:101F900070300068C0F340000028EFD013E0FEF777
:101FA0001DFF054608E0FEF719FF401B41F288318E
:101FB000884201D903208DE5624870300068C0F383
:101FC00040000028EFD1606A00287CD05D481030C6
:101FD000006800F03800182876D0606A022874D1B2
:101FE0005848006820F0807056490860FEF7F6FEF9
:101FF000054606E0FEF7F2FE401B022801D9032049
:1020000068E550480068C0F340600028F2D100BF86
:10201000D4E90A1041EA00104A492831096840F21F
:10202000F33291430843474928310860208E401E0F
:10203000C0F30800616B491E4FF47E4202EA412161
:102040000843218F491ED20102EA014108433C2185
:10205000095D491E120202EA016108433949303123
:10206000086000BF081D00684FF6F87188434FF6FE
:10207000F87292FAA2F2B2FA82F2A16C914008438D
:102080003049343108602F482C30006820F00C00B3
:10209000216C08432B492C3108600846006820F069
:1020A0000200616C084327492C310860084600682B
:1020B00040F4803008600846006840F40030086052
:1020C0000846006802E03BE038E01FE040F4802072
:1020D00008600846006840F0010008601948006880
:1020E00040F0807017490860FEF778FE054606E06C
:1020F000FEF774FE401B022801D90320EAE41148D0
:102100000068C0F340600028F2D019E00D48006874
:1021100020F080700B490860FEF760FE054606E07F
:10212000FEF75CFE401B022801D90320D2E40548DB
:102130000068C0F340600028F2D101E00120C9E44A
:102140000020C7E4004402580048025870B5044615
:10215000002500260CB9012070BD606A00B900BFDF
:10216000A06AB0F5800F00D100BF8E492068884278
:102170000CD08D492068884208D08C49206888425C
:1021800004D0E0680F2801D90120E5E7204600F0DF
:10219000F1FE064683492068884209D082492068BA
:1021A000884205D081492068884201D0082E0DD888
:1021B0007C492068884207D07B492068884203D048
:1021C0007A492068884203D1102E01D90120C3E743
:1021D000A06AB0F5800F1DD17249206888420DD0E9
:1021E00071492068884209D070492068884205D02A
:1021F000206BB0F5702F01D90120ADE7206B10B92D
:10220000A089050400E0256BE068B0EB154F01D90B
:102210000120A1E794F8810028B9002084F880000B
:10222000204600F0C5F8022084F88100206800688C
:1022300020F0010021680860A069B0F1806F0BD127
:102240006068B0F5800F07D1A06B28B920680068DE
:1022500040F4805021680860A16AE069084328437F
:10226000E16B0843E168084321688860616A606B3C
:102270000843A16B0843A1690843216908436169C8
:102280000843216A084361680843E16C0843A16878
:102290000843A16C0843A16D08432168C860A06A87
:1022A000B0F5800F4DD1206C012806D12068006860
:1022B00040F400402168086005E02068006820F4D0
:1022C000004021680860606C012806D12068006821
:1022D00040F480402168086005E02068006820F430
:1022E0008040216808602F49206888420AD02E4922
:1022F0002068884206D02D492068884202D0B5F572
:10230000702F0ED027492068884207D026492068C0
:10231000884203D025492068884209D1B5F5F81FC5
:1023200006D12068006840F400502168086005E08C
:102330002068006820F40050216808602168E06A85
:102340000864606888B9A06A38B92068806820F499
:10235000C05040F40060216888602068806820F4E4
:10236000C06040F48060216888602068006D20F0C3
:10237000010021680865606800F48000B0F5800FF6
:1023800007D12068C06820F00040616D08432168D3
:10239000C8600020C4F88400012084F88100002077
:1023A000DAE600000030014000380040003C004008
:1023B00010B586B0044600BF2948006840F002000E
:1023C000274908600846006800F00200009000BF3E
:1023D00000BF00BF0846006840F0080008600846DB
:1023E000006800F00800009000BF00BF00BF1C485C
:1023F0001030006840F480501949103108600846D8
:10240000006800F48050009000BF00BF6020019081
:102410000120029003900320049001A91148FEF7C7
:10242000B1FB1820019002200290002003900320AD
:1024300004900520059001A90A48FEF7A3FB80201F
:10244000019001A90848FEF79DFB012220210548C3
:10245000FEF7BEFC05A0FEF70FF806B010BD0000A9
:10246000E044025800040258000C025873706931AD
:10247000206770696F20696E697420646F6E652EC5
:102480002E2E0D0A000000002DE9F84F0446884664
:1024900091461D460A9E0027BA4600BF94F8800068
:1024A000012802D10220BDE8F88F012084F88000C5
:1024B00000BFFEF793FC074694F88100012812D074
:1024C0006068B0F5800F05D1A06818B994F8810054
:1024D000042808D04FF0020A00BF002084F88000D2
:1024E00000BF5046DFE7B8F1000F03D0B9F1000F8D
:1024F00000D045B94FF0010A00BF002084F88000E9
:1025000000BF5046CFE794F88100042802D0052090
:1025100084F881000020C4F88400C4F86490A4F812
:102520006A50A4F86850C4F85C80A4F86250A4F81B
:10253000605020676067206840686FF30F00284391
:10254000216848602068006840F001002168086048
:102550006068B0F5800F05D12068006840F4007015
:1025600021680860E0680F284CD942E0B4F86200A6
:1025700088B12068406900F0020002280BD1E06DAC
:10258000006821680862E06D001DE065B4F8620033
:10259000401EA4F86200B4F86A0088B1206840695F
:1025A00048F20801084058B12068006B616E08606D
:1025B000606E001D6066B4F86A00401EA4F86A00F0
:1025C000701CB0B1FEF70AFCC01BB04211D320460C
:1025D00000F052FC00BF002084F8800000BFD4F857
:1025E000840040F48070C4F88400012084F88100E5
:1025F00059E7B4F862000028B8D1B4F86A0000289E
:10260000B4D10FE1E068072871D966E0B4F8620040
:1026100020B32068406900F0020002281ED1B4F8FF
:10262000620001280ED9E06B60B1E06D006821689E
:102630000862E06D001DE065B4F86200801EA4F839
:1026400062000BE0E06D008821680884E06D801C6A
:10265000E065B4F86200401EA4F86200B4F86A00B5
:1026600010B32068406900F46040E8B12068406918
:1026700000F4004060B12068006B616E0860606E1D
:10268000001D6066B4F86A00801EA4F86A000BE0C2
:102690002068008E616E0880606E801C6066B4F8F1
:1026A0006A00401EA4F86A00701CB0B1FEF796FBE9
:1026B000C01BB04211D3204600F0DEFB00BF00205B
:1026C00084F8800000BFD4F8840040F48070C4F81F
:1026D0008400012084F88100E5E6B4F86200002857
:1026E00094D1B4F86A00002890D19BE0FFE790E015
:1026F000B4F8620058B32068406900F00200022874
:1027000033D1B4F8620003280FD9E06B40280CD90C
:10271000E06D006821680862E06D001DE065B4F8B6
:102720006200001FA4F862001FE0B4F862000128F4
:102730000ED9E06B60B1E06D008821680884E06D1F
:10274000801CE065B4F86200801EA4F862000CE012
:10275000E06D0078216881F82000E06D401CE065A4
:10276000B4F86200401EA4F86200B4F86A0048B3EE
:102770002068406900F4604020B32068406900F49C
:10278000004060B12068006B616E0860606E001DE3
:102790006066B4F86A00001FA4F86A0020E02068B0
:1027A000406900F4C040B0F5005F0CD92068008E8D
:1027B000616E0880606E801C6066B4F86A00801EDE
:1027C000A4F86A000CE0206890F83000616E087090
:1027D000606E401C6066B4F86A00401EA4F86A008F
:1027E000701CB0B1FEF7FAFAC01BB04211D32046FC
:1027F00000F042FB00BF002084F8800000BFD4F846
:10280000840040F48070C4F88400012084F88100C2
:1028100049E6B4F8620000287FF46AAFB4F86A00B1
:102820000028F9D13B46002208212046009600F0FE
:10283000AEFB28B1D4F8840040F02000C4F8840036
:10284000204600F019FB00BF002084F8800000BF84
:10285000012084F88100D4F8840008B1012022E628
:10286000002020E6042808D14FF0E021096941F05A
:1028700004014FF0E022116107E04FF0E021096907
:1028800021F004014FF0E0221161704770B5044659
:102890002546681EB0F1807F01D301200FE0681E3D
:1028A0004FF0E02148610F214FF0FF3001F0F6FAC0
:1028B00000204FF0E021886107200861002070BDF2
:1028C0007047704701460022002391F8792091F863
:1028D0007A3042EA030070472DE9F041044620684F
:1028E000C569206807682068866805F00F08B8F198
:1028F000000F0DD105F0200050B107F0200010B9F5
:1029000006F0805020B1204600F007FDBDE8F081C0
:10291000B8F1000F72D05D48304018B907F49070DC
:1029200000287AD005F0010048B107F4807030B17A
:10293000012021680862E06F40F00100E06705F0C7
:10294000020048B106F0010030B10220216808629F
:10295000E06F40F00400E06705F0040048B106F0C5
:10296000010030B1042021680862E06F40F00200ED
:10297000E06705F0080078B107F0200028B906F0FC
:10298000805010B906F0010030B1082021680862BB
:10299000E06F40F00800E067E06F70B305F02000E2
:1029A00040B107F0200010B906F0805010B1204669
:1029B00000F0B3FCE06F00F0080020B920688068E8
:1029C00000F0400018B3204600F087FC20688068C3
:1029D00000F04000B8B12068806820F04000216815
:1029E0008860606F58B12A48616F0865606FFEF7B4
:1029F0002FF810B1606F016D88470DE00DE02046A3
:102A0000FFF75FFF08E02046FFF75BFF04E020468A
:102A1000FFF757FF0020E06778E705F4801078B1F2
:102A200006F4800060B14FF4801021680862202015
:102A300084F8790084F87A002046FFF741FF65E7C3
:102A400005F0800048B107F0800010B906F40000DE
:102A500018B1204601F078F958E705F0400030B190
:102A600007F0400018B1204600F047FC4EE705F49F
:102A7000000040B107F0804028B12068006820F0D5
:102A800080402168086000BF40E70000010000109E
:102A9000C332000810B504460CB9012010BDA0696E
:102AA00000B100E000BF94F8790028B9002084F854
:102AB0007800204600F02AF8242084F87900206865
:102AC000006820F0010021680860204600F06AFCE0
:102AD000012800D1E2E7606B10B1204600F042FB14
:102AE0002068406820F49040216848602068806831
:102AF00020F02A00216888602068006840F001000A
:102B000021680860204600F0A2FBC7E710B586B038
:102B100004462149206888423BD100BF1F48006815
:102B200040F001001D4908600846006800F00100FF
:102B3000009000BF00BF00BF18481030006840F090
:102B400010001649103108600846006800F01000B7
:102B5000009000BF00BF4FF400700190022002906F
:102B600001200390022004900720059001A90C4841
:102B7000FEF708F84FF48060019001A90848FEF7BD
:102B800001F82520FEF72EFA032211462520FEF734
:102B900039FA06B010BD000000100140E0440258B0
:102BA0000000025810B5034693F87A00202867D138
:102BB00001B10AB9012010BD00BF93F878000128C7
:102BC00001D10220F7E7012083F8780000BF5966A1
:102BD000A3F86820A3F86A2000BF9868B0F5805F6A
:102BE0000AD1186920B940F2FF10A3F86C001CE06C
:102BF000FF20A3F86C0018E0986848B9186918B964
:102C0000FF20A3F86C0010E07F20A3F86C000CE01C
:102C10009868B0F1805F08D1186918B97F20A3F8CF
:102C20006C0002E03F20A3F86C0000BF0020D867D2
:102C3000222083F87A0000BF002083F8780000BFCC
:102C40001868806840F001001C68A060186800687F
:102C500000F0005060B11868006840F480701C6893
:102C600020601868806840F080501C68A06005E013
:102C70001868006840F490701C68206000209AE793
:102C8000022098E71D4A0168914236D11C49098803
:102C900001F4004189BB1A49098801F4804171B1EE
:102CA000184909780A2903D00021154A118024E027
:102CB0001349098841F40041114A11801DE011496E
:102CC00009780D2906D10E49098841F480410C4A42
:102CD000118012E00B490978094A1288C2F30D02EB
:102CE000094B995406490988491C054A1180114627
:102CF0000988C72901DD00211180704700100140BB
:102D00001400002416000024B0000024704700BF07
:102D1000FEE7000000B587B000BF0D48006840F036
:102D200002000B4908600846006800F002000190AC
:102D300000BF00BF042002900120039004900320F4
:102D4000059002A90348FDF71DFF07B000BD000074
:102D5000E04402580004025800BFFEE77047704785
:102D600010B50023234C236000BF00BF00BFBFF39A
:102D70004F8F00BF00BF00BF231F1868C0F34E3144
:102D800000BFC0F3C90200BF43F6E07303EA41137A
:102D90004FF0404404EA82742343174C236000BF81
:102DA00000BF131EA2F10102EED10B1EA1F1010121
:102DB000E7D100BF00BF00BFBFF34F8F00BF00BF10
:102DC00000BF0C4B703B1B6843F48033094C703CD4
:102DD000236000BF00BF00BFBFF34F8F00BF00BF25
:102DE00000BF00BF00BF00BFBFF36F8F00BF00BFB9
:102DF00000BF10BD84ED00E060EF00E000BF00BF49
:102E000000BFBFF34F8F00BF00BF00BF00BF00BFB8
:102E100000BFBFF36F8F00BF00BF00BF0020144989
:102E2000086000BF00BF00BFBFF34F8F00BF00BFEF
:102E300000BF00BF00BF00BFBFF36F8F00BF00BF68
:102E400000BF0C48006840F400300A49086000BF29
:102E500000BF00BFBFF34F8F00BF00BF00BF00BF68
:102E600000BF00BFBFF36F8F00BF00BF00BF704740
:102E700050EF00E014ED00E00268516902689269C9
:102E800042F0080203689A610268926942F01002F7
:102E900003689A610268126822F0010203681A60EE
:102EA0000268126940F26B339A4303681A61026840
:102EB000926822F4404203689A6090F88120042AC4
:102EC0000ED001F020025AB1D0F8842042F08002E6
:102ED000C0F884200268926942F0200203689A6177
:102EE00090F88120032A21D001F040025AB1D0F895
:102EF000842042F00402C0F884200268926942F003
:102F0000400203689A61826AB2F5800F0ED101F027
:102F100080025AB1D0F8842042F00202C0F8842026
:102F20000268926942F0800203689A6101F40072BB
:102F30005AB1D0F8842042F00102C0F8842002681F
:102F4000926942F4007203689A6101F480725AB186
:102F5000D0F8842042F00802C0F884200268926908
:102F600042F4807203689A610022A0F86220A0F8FF
:102F70006A20704710B501460124C86B04EB50135A
:102F8000C868421CD01DC20802FB03F010BD2DE929
:102F9000F04106460C4617469846069D0BE0681C15
:102FA00048B12DB1FDF71AFFA0EB0800A84202D9E5
:102FB0000320BDE8F081306840692040A04201D183
:102FC000012000E00020B842E9D00020F1E770477E
:102FD0002DE9F0419CB080460C4615461E46002760
:102FE0003748006820F004003549086000BF002021
:102FF000009033480C30006840F4404030490C31B8
:1030000008600846006800F44040009000BF00BF20
:1030100000BF2B480C30006800F40050B0F5005F92
:10302000F7D1012001900004029000200490089044
:1030300002200A9002210B91CDF834800C940E9559
:103040000F96002112910821119101A8FEF71CFD95
:1030500007460FB100BFFEE73F20149003201590F4
:1030600000201690082017904020199000011A9017
:103070004020189050201B90022114A8FEF772FAED
:1030800007460FB100BFFEE70E48006840F0800021
:103090000C49086000BF0B48F430006840F00200A3
:1030A0000849F43108600846006800F0020000900A
:1030B00000BF00BFFDF75CFD1CB0BDE8F081000063
:1030C0000C4802580044025810B5FDF78DFE10BDA3
:1030D0002048006840F470001E4908601E480068DF
:1030E00040F001001C49086000201B4910310860B5
:1030F0001948006819490840174908600020164916
:1031000018310860091D0860091D0860124928313E
:103110000860091D0860091D0860091D0860091D77
:103120000860091D0860091D0860091D08600A483B
:10313000006820F4802008490860002006496031BA
:103140000860012006490860C0060249803908600D
:103150007047000088ED00E0004402587FEDF6EA79
:103160000881005190F8341001F0010139B1016873
:10317000496821F40031826B11430268516090F874
:10318000341001F0020139B10168496821F480313D
:10319000C26B11430268516090F8341001F00401D1
:1031A00039B10168496821F48021026C1143026839
:1031B000516090F8341001F0080139B10168496894
:1031C00021F40041426C11430268516090F83410C0
:1031D00001F0100139B10168896821F48051826CD5
:1031E00011430268916090F8341001F0200139B168
:1031F0000168896821F40051C26C11430268916032
:1032000090F8341001F0400199B10168496821F447
:103210008011026D114302685160016DB1F5801F8C
:1032200007D10168496821F4C001426D1143026869
:10323000516090F8341001F0800139B1016849689B
:1032400021F40021826D114302685160704738B546
:10325000044600250020E067FDF7C0FD0546206814
:10326000006800F0080008280CD16FF07E402B4663
:1032700000224FF400110090204600F0A6FD08B196
:10328000032038BD2068006800F0040004280CD139
:103290006FF07E402B4600224FF4800100902046C4
:1032A00000F093FD08B10320EBE7202084F87900BB
:1032B00084F87A0000BF002084F8780000BF00BFC7
:1032C000DFE770B50546AC6B0020A4F86A00A4F8EF
:1032D00062002046FFF7F5FA70BD0168096821F425
:1032E0009071026811600168896821F0010102682B
:1032F0009160202180F87A10704710B5044620684C
:10330000006820F0400021680860202084F87900DF
:103310002046FFF7FBFC002010BD2DE9F0410446DC
:10332000B4F86C7094F87A00222833D12068858C28
:10333000A068B0F5805F09D1206938B9666E05EAEA
:1033400007003080606E801C606605E0F8B228409F
:10335000626E511C61661070B4F86A00401E80B243
:10336000A4F86A00A0B92068006820F49070216871
:1033700008602068806820F00100216888602020B3
:1033800084F87A002046FFF77DFC0020BDE8F0813C
:103390000020FBE72068008B40F0080021680883CC
:1033A0000220F3E72DE9F04F89B0044600254FF0E5
:1033B0008008A946AA4600200890FA492068884259
:1033C00001D1012000E0002000B100E000BFA06AB0
:1033D000B0F1005F00D100BF2169A06808436169B6
:1033E0000843E16940EA0105A06A054320680068D6
:1033F000ED4908402843216808602068406820F4AF
:103400004050E168084321684860A569E5492068A3
:10341000884201D1012000E0002008B9206A05435C
:10342000A06AB0F1005F03D1D4E90B010843054362
:1034300020688068DD49084028432168886020684A
:10344000C06A20F00F00616A08432168C86200BFAB
:10345000D7492068884224D1D648006800F0380057
:10346000182814D005DC48B108280AD0102817D134
:103470000AE020280ED0282812D10EE04FF00108D3
:103480000EE04FF004080BE04FF0400808E04FF06A
:10349000080805E04FF0100802E04FF0200800BFD8
:1034A00017E1C549206888421DD1C248006800F074
:1034B0000700062816D2DFE800F00306090C0F12F9
:1034C0004FF000080EE04FF004080BE04FF040080A
:1034D00008E04FF0080805E04FF0100802E04FF058
:1034E000200800BFF5E0B549206888421DD1B148E9
:1034F000006800F00700062816D2DFE800F0030697
:10350000090C0F124FF000080EE04FF004080BE01A
:103510004FF0400808E04FF0080805E04FF01008B1
:1035200002E04FF0200800BFD3E0A54920688842A0
:103530001DD1A048006800F00700062816D2DFE879
:1035400000F00306090C0F124FF000080EE04FF0D8
:1035500004080BE04FF0400808E04FF0080805E0D1
:103560004FF0100802E04FF0200800BFB1E095498D
:10357000206888421DD18F48006800F007000628A7
:1035800016D2DFE800F00306090C0F124FF0000816
:103590000EE04FF004080BE04FF0400808E04FF059
:1035A000080805E04FF0100802E04FF0200800BFC7
:1035B0008FE085492068884224D17E48006800F069
:1035C0003800182814D005DC48B108280AD0102883
:1035D00017D10AE020280ED0282812D10EE04FF093
:1035E00001080EE04FF004080BE04FF0400808E03F
:1035F0004FF0080805E04FF0100802E04FF02008F7
:1036000000BF66E07149206888421DD169480068A2
:1036100000F00700062816D2DFE800F00306090CC8
:103620000F124FF000080EE04FF004080BE04FF0CF
:10363000400808E04FF0080805E04FF0100802E0ED
:103640004FF0200800BF44E06149206888421DD146
:103650005848006800F00700062816D2DFE800F09E
:103660000306090C0F124FF000080EE04FF004089B
:103670000BE04FF0400808E04FF0080805E04FF07D
:10368000100802E04FF0200800BF22E04549206802
:1036900088421ED14748001D006800F00700062838
:1036A00016D2DFE800F00306090C0F124FF00208F3
:1036B0000EE04FF004080BE04FF0400808E04FF038
:1036C000080805E04FF0100802E04FF0200800BFA6
:1036D00000BF00BF33492068884201D1012000E0CB
:1036E000002000285DD00025B8F1100F33D009DC90
:1036F000B8F1020F10D0B8F1040F11D0B8F1080FD3
:103700002ED117E0B8F1200F27D0B8F1400F0CD020
:10371000B8F1800F24D124E0FDF7E2FC054623E058
:1037200005A8FDF7F3FC069D1EE002A8FDF704FEC8
:10373000039D19E01F4854380068C0F3401040B1A1
:103740001C4854380068C0F3C101224820FA01F532
:1037500000E0204D08E0204D06E04FF4004503E076
:1037600000BF0120089000BF00BF002D0AD0606894
:1037700000EB4000A84203D860680003A84202D2D0
:1037800001200890D4E2B8F1100F7CD026DCB8F10B
:10379000020F2DD0B8F1040F52D0B8F1080F73D139
:1037A0009EE03FE1000C0058F369FFCFFFF4FF11EA
:1037B00000100140544402580044004000480040BA
:1037C000004C0040005000400014014000780040D0
:1037D000007C00400090D00300093D00B8F1200FAC
:1037E0007DD0B8F1400F54D0B8F1800FD7D109E1A6
:1037F000FDF776FC00270646FB49606A31F810C0E9
:1038000062463B4630463946FCF7BEFD4FF48076B3
:1038100000220346A3FB060701FB067103FB02130C
:1038200061684908064671185A41CDE90012666878
:103830003246002308460199FCF7A6FD0546E4E060
:1038400005A8FDF763FCDDF818C0E749606A31F8A8
:1038500010B05A46002360461946FCF795FD4FF418
:10386000807C0022A0FB0C3B01FB0CB100FB021092
:10387000616849085E1840EB0201D4F804C0624652
:103880000023304601E079E0BBE0FCF77DFD054612
:10389000BBE002A8FDF750FDDDF80CC0D249606A1C
:1038A00031F810B05A46002360461946FCF76CFD0B
:1038B0004FF4807C0022A0FB0C3B01FB0CB100FB11
:1038C0000210616849085E1840EB0201D4F804C098
:1038D000624600233046FCF757FD054695E06EE052
:1038E000C2480068C0F3401038B3C0480068C0F355
:1038F000C101BF4820FA01FCBB49606A31F810B031
:103900005A46002360461946FCF73EFD4FF4807C82
:103910000022A0FB0C3B01FB0CB100FB0210616814
:1039200049085E1840EB0201D4F804C06246002347
:103930003046FCF729FD05461FE0AB49606A31F8C7
:1039400010C062460023AA481946FCF71DFD4FF43B
:10395000807C0022A0FB0C3B01FB0CB100FB0210A1
:10396000616849085E1840EB0201D4F804C0624661
:1039700000233046FCF708FD054646E09A49606A98
:1039800031F810C0624600239A481946FCF7FCFC47
:103990004FF4807C0022A0FB0C3B01FB0CB100FB30
:1039A0000210616849085E1840EB0201D4F804C0B7
:1039B000624600233046FCF7E7FC054625E08A49CD
:1039C000606A31F810C0624600234FF40040194687
:1039D000FCF7DAFC4FF4807C0022A0FB0C3B01FBDF
:1039E0000CB100FB0210616849085E1840EB02014F
:1039F000D4F804C0624600233046FCF7C5FC0546F7
:103A000003E000BF0120089000BF00BFB5F5407F74
:103A100005D3B5F5801F02D22068C56088E101207A
:103A2000089085E1E069B0F5004F7CD1B8F1100F46
:103A30007AD00CDCB8F1000F13D0B8F1010F21D00F
:103A4000B8F1040F2FD0B8F1080F6ED151E0B8F1E2
:103A5000200F6BD0B8F1400F38D0B8F1800F64D18F
:103A600097E0FDF7C3FE604A616A32F81110B0FBBF
:103A7000F1F04000616800EB5100B0FBF1F01FFA7B
:103A800080FA89E0FDF7C8FE574A616A32F81110E2
:103A9000B0FBF1F04000616800EB5100B0FBF1F0C9
:103AA0001FFA80FA78E005A8FDF730FB06994E4A28
:103AB000606A32F81000B1FBF0F04000616800EB82
:103AC0005100B0FBF1F01FFA80FA65E002A8FDF7A3
:103AD00033FC0399444A606A32F81000B1FBF0F0FD
:103AE0004000616800EB5100B0FBF1F01FFA80FA72
:103AF00052E03E480068C0F34010C0B13B48006847
:103B0000C0F3C1013A48C840374A616A32F811101F
:103B1000B0FBF1F04000616800EB5100B0FBF1F048
:103B20001FFA80FA12E044E011E031E01FE02E4974
:103B3000606A31F810002E49B1FBF0F04000616876
:103B400000EB5100B0FBF1F01FFA80FA24E02649A7
:103B5000606A31F810002749B1FBF0F0400061685D
:103B600000EB5100B0FBF1F01FFA80FA14E01E499F
:103B7000606A31F810004FF40041B1FBF0F04000F2
:103B8000616800EB5100B0FBF1F01FFA80FA03E02E
:103B900000BF0120089000BF00BF4FF6F0700AEA96
:103BA0000009CAF3420049EA00092068C0F80C90F5
:103BB000BEE0B8F1100F7CD00CDCB8F1000F1BD0C8
:103BC000B8F1010F29D0B8F1040F37D0B8F1080FC0
:103BD00070D159E0B8F1200F6DD0B8F1400F40D04E
:103BE000B8F1800F66D19FE01E46000800440258DD
:103BF0000090D00300093D00FDF7F8FD4E4A616AD0
:103C000032F81110B0FBF1F0616800EB5100B0FB2D
:103C1000F1F080B22168C86089E0FDF7FDFD464AF9
:103C2000616A32F81110B0FBF1F0616800EB5100ED
:103C3000B0FBF1F080B22168C86078E005A8FDF71C
:103C400065FA06993C4A606A32F81000B1FBF0F060
:103C5000616800EB5100B0FBF1F080B22168C860F0
:103C600065E002A8FDF768FB0399334A606A32F801
:103C70001000B1FBF0F0616800EB5100B0FBF1F017
:103C800080B22168C86052E02C480068C0F3401040
:103C9000C0B12A480068C0F3C1012948C840264A7B
:103CA000616A32F81110B0FBF1F0616800EB51006D
:103CB00002E017E037E025E0B0FBF1F080B22168C8
:103CC000C8600EE01C49606A31F810001C49B1FB65
:103CD000F0F0616800EB5100B0FBF1F080B22168B8
:103CE000C86024E01449606A31F810001549B1FB3E
:103CF000F0F0616800EB5100B0FBF1F080B2216898
:103D0000C86014E00C49606A31F810004FF40041BB
:103D1000B1FBF0F0616800EB5100B0FBF1F080B254
:103D20002168C86003E000BF0120089000BF00BF09
:103D3000089809B0BDE8F08F1E46000800440258FC
:103D40000090D00300093D00014691F87900212838
:103D500039D1B1F86200C8B90868006800F00050B5
:103D600030B10868806820F400000B68986005E0B6
:103D70000868006820F080000B6818600868006818
:103D800040F040000B681860002070478868B0F56C
:103D9000805F0BD1086948B9CA6D1088C0F308006C
:103DA0000B681885C86D801CC86505E0CB6D581C74
:103DB000C86518780B681885B1F86200401EA1F834
:103DC00062000020E1E70220DFE72DE9F041044630
:103DD0000D4617469846069E21E0701CF8B12EB19C
:103DE000FCF7FCFFA0EB0800B04218D9206800687F
:103DF00020F4D070216808602068806820F00100FD
:103E000021688860202084F8790084F87A0000BF57
:103E1000002084F8780000BF0320BDE8F08120680E
:103E2000C0692840A84201D1012000E00020B8422A
:103E3000D3D00020F1E7000070B500240F4D1048EA
:103E4000FEF74AFD00BF03E0641CAC4200D904E069
:103E50000B48FEF737FD2028F6D100BF002403E011
:103E6000641CAC4200D906E0012206490448FEF772
:103E700099FE0028F4D100BF70BD0000FFFF0100D3
:103E8000780100241600002400BFFEE70248006805
:103E9000C0F30220704700000CED00E010B50028D0
:103EA00004DB0A07130E054A135406E00A07140E32
:103EB000034A00F00F031B1FD45410BD00E400E0C0
:103EC00018ED00E030380A2801D2012070470020A8
:103ED000704700BF7047000010B504460420FEF78D
:103EE000C1FC0148046010BD0C00002430B504463C
:103EF000002504E04FF47A7000F004F86D1CA54230
:103F0000F8D330BD70B5034600224FF0E026756946
:103F10000D4E366803FB06F44FF0E026B16910E061
:103F20004FF0E026B06988420BD0884202D20E1AC8
:103F3000324402E02E1A0E4432440146A24200D31B
:103F400000E0EDE700BF70BD0C00002400B59BB0A1
:103F500026A0FCF791FA00BF2848006840F4805082
:103F6000264908600846006800F48050019000BFB0
:103F700000BF02A8FCF7BCFF072014900120159099
:103F80000620169000201790189019901A901C483F
:103F900002901C4803900020049000210591082104
:103FA000069110210791002108910C9109910A9125
:103FB0000E914FF480510B9100210D910F914FF410
:103FC00080111091002111911291002214A902A8D0
:103FD000FCF74CFF18B10CA0FCF74EFA02E011A060
:103FE000FCF74AFA00201BB000BD0000666D63209C
:103FF000696E69742E2E2E0D0A000000D4440258FA
:10400000004000520441005268616C207372616D7F
:1040100020696E6974206661696C2E2E2E2E2E2EFC
:104020000D0A000068616C207372616D20696E6911
:104030007420737563636573732E2E2E2E2E2E0DD2
:104040000A00000010B501200E4908804FF4FA70F4
:10405000FCF77AFD00200B4908800B4801880BA073
:10406000FCF70AFA0220074908804FF4FA70FCF7BF
:104070006BFD0020034908804FF4FA70FCF764FDE3
:1040800010BD00000000026000000660526561641F
:1040900020446174612046726F6D20465047413A5A
:1040A00025303478200D0A0000BF054AD26902F09D
:1040B0004002002AF9D0C2B2014B1A8570470000B5
:1040C00000100140FCF720FCFCF79AFE04230222BA
:1040D0000521A020FEF77CFF4FF4C870FFF7FCFE1F
:1040E0004FF4E13000F0A4F8FEF714FEFFF72EFFC6
:1040F0000D48006800F01CF815E0002204210B4870
:10410000FCF766FE4FF4FA70FFF7F0FE012204217F
:104110000648FCF75DFE4FF4FA70FFF7E7FEFFF785
:1041200091FF00F049F8E8E700000024000402587D
:1041300010B50446154820604FF4800060600021EF
:10414000A1600721E1600021216161610101A1619C
:10415000002121626162A1620721E16200216163A5
:10416000A163E16321646164A164E1642165616527
:10417000A1652046FDF7EAFF18B105A0FCF77CF920
:1041800002E008A0FCF778F910BD00000030014003
:104190007370693120696E6974206661696C2E2EB6
:1041A0002E0D0A007370693120696E697420646F86
:1041B0006E652E2E2E0D0A0010B588B000F0F6F8B0
:1041C00000200090019002900390002402E004A9D6
:1041D0000C55641C102CFADB002000F053F84FF44F
:1041E000FA70FFF783FE0022102104A800F09CF96A
:1041F0004FF4FA70FFF77AFE00221021684600F0B3
:1042000085F8002406E01DF80420214603A0FCF7F1
:1042100033F9641C102CF6DB08B010BD72657662B1
:104220007566665B2532645D3A253278200D0A009A
:1042300010B504460B480C4908600846446000214C
:104240008160C160016181610C214161FEF722FC46
:10425000012206490448FEF7A5FC05A0FCF70CF96D
:1042600010BD000000100140780100241600002459
:104270007561727420696E697420646F6E652E2E8C
:104280002E0D0A002DE9FE430646350315A00068F1
:104290000190042741F2883802AC20202070280CBD
:1042A0006070280AA070E57000F008F900F0BEF810
:1042B000002240210C48FCF78BFD3B4601AA02A9D5
:1042C0000A48CDF800800068FEF7DEF801224021A0
:1042D0000548FCF77DFD00F0A9F805A0FCF7CCF837
:1042E000BDE8FE83FFFFFFFF00040258000000242A
:1042F0007370693120657261736520736563746FD3
:104300007220646F6E652E2E2E0D0A002DE9F0438B
:10431000C3B00646884614461AA0006841904FF084
:10432000040941F2883742AD03202870200C6870E0
:10433000200AA870EC70FF22511C01A8FCF7D4F9E8
:10434000002240211048FCF743FD4B4641AA42A9F8
:104350000E4800970068FEF797F81FFA88F3324678
:1043600001A90A4800970068FEF78EF80122402153
:104370000548FCF72DFD06A0FCF77EF843B0BDE82C
:10438000F0830000FFFFFFFF00040258000000243C
:1043900073706931207265616420646174612064A6
:1043A0006F6E652E2E2E0D0A0000000070B586B0CF
:1043B0000024154903C9CDE90401062541F28836D8
:1043C000FF22082102A8FCF78FF9002240210F48A4
:1043D000FCF7FEFC2B4602AA04A90D4800960068D3
:1043E000FEF752F8012240210848FCF7F1FC9DF845
:1043F0000C0004029DF80D000443214605A0FCF7C3
:104400003BF8204606B070BD804600080004025804
:10441000000000247370693120773235717878207C
:1044200069643A25347820200D0A00007FB518A071
:104430000068039017A00068029016A00068019021
:10444000012541F28834002240211348FCF7C0FCCA
:1044500000BF2B4602AA03A9104800940068FEF78B
:1044600013F82B4602AA01A90C4800940068FEF735
:104470000BF89DF8080000F001000028E9D10122A6
:1044800040210548FCF7A4FC05A0FBF7F5FF7FBD24
:1044900005000000FF000000000402580000002496
:1044A0007370693120776169742062757379206453
:1044B0006F6E652E2E2E0D0A000000003EB50FA077
:1044C000006802900EA000680190012441F2883536
:1044D000002240210B48FCF77BFC234601AA02A9DD
:1044E000094800950068FDF7CFFF012240210548EB
:1044F000FCF76EFC05A0FBF7BFFF3EBD0600000009
:10450000FF000000000402580000002473706931AD
:1045100020777269746520656E61626C6520646FD6
:104520006E652E2E2E0D0A002DE9F043C3B006460F
:104530000F4614461DA0006841904FF0040941F257
:10454000883842AD02202870200C6870200AA870BC
:10455000EC70FF22511C01A8FCF7C6F8FFF7AEFF74
:10456000FFF764FF002240211148FCF731FC4B4665
:1045700041AA42A90F48CDF800800068FDF784FFEA
:104580003B4601AA31460B48CDF800800068FDF794
:104590007BFF012240210648FCF71AFCFFF746FF8B
:1045A00005A0FBF769FF43B0BDE8F083FFFFFFFF05
:1045B000000402580000002473706931207772698A
:1045C0007465207061676520646F6E652E2E2E0DF8
:1045D0000A0000004FF04070E1EE100A7047010041
:1045E00002000400060008000A000C001000200071
:1045F00040008000000101000200040006000800E5
:104600000A000C00100020004000800000010000A3
:104610000000010203040102030406070809010067
:1046200002000400060008000A000C001000200030
:1046300040008000000101000200040006000800A4
:104640000A000C0010002000400080000001000063
:10465000010002000400060008000A000C0010001F
:10466000200040008000000101000200040006005C
:1046700008000A000C00100020004000800000012B
:1046800090FFFF00FFFF0000303132333435363702
:104690003839414243444546403058003031323386
:1046A0003435363738396162636465664030780086
:1046B00004000008000000000000000200010000EB
:1046C00010000000E446000800000024280000005C
:1046D000D40200080C47000828000024300800001D
:1046E000F0020008280000240090D0030090D003BE
:1046F00000000000000000000000000000000000BA
:0C4700001000000001000000000000009C
:040000050800029954
:00000001FF
